{
  "_format": "hh-sol-artifact-1",
  "contractName": "BuyMeCoffee",
  "sourceName": "contracts/BuyMeCoffee.sol",
  "abi": [
    {
      "inputs": [],
      "stateMutability": "nonpayable",
      "type": "constructor"
    },
    {
      "anonymous": false,
      "inputs": [
        {
          "indexed": true,
          "internalType": "address",
          "name": "from",
          "type": "address"
        },
        {
          "indexed": false,
          "internalType": "uint256",
          "name": "timestamp",
          "type": "uint256"
        },
        {
          "indexed": false,
          "internalType": "string",
          "name": "name",
          "type": "string"
        },
        {
          "indexed": false,
          "internalType": "string",
          "name": "message",
          "type": "string"
        }
      ],
      "name": "NewMemo",
      "type": "event"
    },
    {
      "inputs": [
        {
          "internalType": "string",
          "name": "_name",
          "type": "string"
        },
        {
          "internalType": "string",
          "name": "_message",
          "type": "string"
        }
      ],
      "name": "buyCoffeeLarge",
      "outputs": [],
      "stateMutability": "payable",
      "type": "function"
    },
    {
      "inputs": [
        {
          "internalType": "string",
          "name": "_name",
          "type": "string"
        },
        {
          "internalType": "string",
          "name": "_message",
          "type": "string"
        }
      ],
      "name": "buyCoffeeSmall",
      "outputs": [],
      "stateMutability": "payable",
      "type": "function"
    },
    {
      "inputs": [],
      "name": "getMemos",
      "outputs": [
        {
          "components": [
            {
              "internalType": "address",
              "name": "from",
              "type": "address"
            },
            {
              "internalType": "uint256",
              "name": "timestamp",
              "type": "uint256"
            },
            {
              "internalType": "string",
              "name": "name",
              "type": "string"
            },
            {
              "internalType": "string",
              "name": "message",
              "type": "string"
            }
          ],
          "internalType": "struct BuyMeCoffee.Memo[]",
          "name": "",
          "type": "tuple[]"
        }
      ],
      "stateMutability": "view",
      "type": "function"
    },
    {
      "inputs": [],
      "name": "owner",
      "outputs": [
        {
          "internalType": "address payable",
          "name": "",
          "type": "address"
        }
      ],
      "stateMutability": "view",
      "type": "function"
    },
    {
      "inputs": [
        {
          "internalType": "address",
          "name": "_newOwner",
          "type": "address"
        }
      ],
      "name": "updateOwner",
      "outputs": [],
      "stateMutability": "nonpayable",
      "type": "function"
    },
    {
      "inputs": [],
      "name": "withdraw",
      "outputs": [],
      "stateMutability": "payable",
      "type": "function"
    }
  ],
  "bytecode": "0x608060405234801561001057600080fd5b50336000806101000a81548173ffffffffffffffffffffffffffffffffffffffff021916908373ffffffffffffffffffffffffffffffffffffffff160217905550610f4d806100606000396000f3fe6080604052600436106100555760003560e01c80633ccfd60b1461005a578063865c517214610064578063880cdc311461008f5780638da5cb5b146100b85780639ccfed0b146100e3578063d9a7c591146100ff575b600080fd5b61006261011b565b005b34801561007057600080fd5b50610079610212565b6040516100869190610ac8565b60405180910390f35b34801561009b57600080fd5b506100b660048036038101906100b19190610b2a565b6103f5565b005b3480156100c457600080fd5b506100cd6104c6565b6040516100da9190610b78565b60405180910390f35b6100fd60048036038101906100f89190610cc8565b6104ea565b005b61011960048036038101906101149190610cc8565b610678565b005b3373ffffffffffffffffffffffffffffffffffffffff1660008054906101000a900473ffffffffffffffffffffffffffffffffffffffff1673ffffffffffffffffffffffffffffffffffffffff16146101a9576040517f08c379a00000000000000000000000000000000000000000000000000000000081526004016101a090610d9d565b60405180910390fd5b60008054906101000a900473ffffffffffffffffffffffffffffffffffffffff1673ffffffffffffffffffffffffffffffffffffffff166108fc479081150290604051600060405180830381858888f1935050505015801561020f573d6000803e3d6000fd5b50565b60606001805480602002602001604051908101604052809291908181526020016000905b828210156103ec57838290600052602060002090600402016040518060800160405290816000820160009054906101000a900473ffffffffffffffffffffffffffffffffffffffff1673ffffffffffffffffffffffffffffffffffffffff1673ffffffffffffffffffffffffffffffffffffffff168152602001600182015481526020016002820180546102c990610dec565b80601f01602080910402602001604051908101604052809291908181526020018280546102f590610dec565b80156103425780601f1061031757610100808354040283529160200191610342565b820191906000526020600020905b81548152906001019060200180831161032557829003601f168201915b5050505050815260200160038201805461035b90610dec565b80601f016020809104026020016040519081016040528092919081815260200182805461038790610dec565b80156103d45780601f106103a9576101008083540402835291602001916103d4565b820191906000526020600020905b8154815290600101906020018083116103b757829003601f168201915b50505050508152505081526020019060010190610236565b50505050905090565b3373ffffffffffffffffffffffffffffffffffffffff1660008054906101000a900473ffffffffffffffffffffffffffffffffffffffff1673ffffffffffffffffffffffffffffffffffffffff1614610483576040517f08c379a000000000000000000000000000000000000000000000000000000000815260040161047a90610d9d565b60405180910390fd5b806000806101000a81548173ffffffffffffffffffffffffffffffffffffffff021916908373ffffffffffffffffffffffffffffffffffffffff16021790555050565b60008054906101000a900473ffffffffffffffffffffffffffffffffffffffff1681565b660aa87bee5380003414610533576040517f08c379a000000000000000000000000000000000000000000000000000000000815260040161052a90610e6a565b60405180910390fd5b600160405180608001604052803373ffffffffffffffffffffffffffffffffffffffff16815260200142815260200184815260200183815250908060018154018082558091505060019003906000526020600020906004020160009091909190915060008201518160000160006101000a81548173ffffffffffffffffffffffffffffffffffffffff021916908373ffffffffffffffffffffffffffffffffffffffff160217905550602082015181600101556040820151816002019080519060200190610602929190610806565b50606082015181600301908051906020019061061f929190610806565b5050503373ffffffffffffffffffffffffffffffffffffffff167fc56140e05f516509ae28110e0f72e17558a7561630dad2647c3ae87d986e365c42848460405161066c93929190610ed2565b60405180910390a25050565b66038d7ea4c6800034146106c1576040517f08c379a00000000000000000000000000000000000000000000000000000000081526004016106b890610e6a565b60405180910390fd5b600160405180608001604052803373ffffffffffffffffffffffffffffffffffffffff16815260200142815260200184815260200183815250908060018154018082558091505060019003906000526020600020906004020160009091909190915060008201518160000160006101000a81548173ffffffffffffffffffffffffffffffffffffffff021916908373ffffffffffffffffffffffffffffffffffffffff160217905550602082015181600101556040820151816002019080519060200190610790929190610806565b5060608201518160030190805190602001906107ad929190610806565b5050503373ffffffffffffffffffffffffffffffffffffffff167fc56140e05f516509ae28110e0f72e17558a7561630dad2647c3ae87d986e365c4284846040516107fa93929190610ed2565b60405180910390a25050565b82805461081290610dec565b90600052602060002090601f016020900481019282610834576000855561087b565b82601f1061084d57805160ff191683800117855561087b565b8280016001018555821561087b579182015b8281111561087a57825182559160200191906001019061085f565b5b509050610888919061088c565b5090565b5b808211156108a557600081600090555060010161088d565b5090565b600081519050919050565b600082825260208201905092915050565b6000819050602082019050919050565b600073ffffffffffffffffffffffffffffffffffffffff82169050919050565b6000610900826108d5565b9050919050565b610910816108f5565b82525050565b6000819050919050565b61092981610916565b82525050565b600081519050919050565b600082825260208201905092915050565b60005b8381101561096957808201518184015260208101905061094e565b83811115610978576000848401525b50505050565b6000601f19601f8301169050919050565b600061099a8261092f565b6109a4818561093a565b93506109b481856020860161094b565b6109bd8161097e565b840191505092915050565b60006080830160008301516109e06000860182610907565b5060208301516109f36020860182610920565b5060408301518482036040860152610a0b828261098f565b91505060608301518482036060860152610a25828261098f565b9150508091505092915050565b6000610a3e83836109c8565b905092915050565b6000602082019050919050565b6000610a5e826108a9565b610a6881856108b4565b935083602082028501610a7a856108c5565b8060005b85811015610ab65784840389528151610a978582610a32565b9450610aa283610a46565b925060208a01995050600181019050610a7e565b50829750879550505050505092915050565b60006020820190508181036000830152610ae28184610a53565b905092915050565b6000604051905090565b600080fd5b600080fd5b610b07816108f5565b8114610b1257600080fd5b50565b600081359050610b2481610afe565b92915050565b600060208284031215610b4057610b3f610af4565b5b6000610b4e84828501610b15565b91505092915050565b6000610b62826108d5565b9050919050565b610b7281610b57565b82525050565b6000602082019050610b8d6000830184610b69565b92915050565b600080fd5b600080fd5b7f4e487b7100000000000000000000000000000000000000000000000000000000600052604160045260246000fd5b610bd58261097e565b810181811067ffffffffffffffff82111715610bf457610bf3610b9d565b5b80604052505050565b6000610c07610aea565b9050610c138282610bcc565b919050565b600067ffffffffffffffff821115610c3357610c32610b9d565b5b610c3c8261097e565b9050602081019050919050565b82818337600083830152505050565b6000610c6b610c6684610c18565b610bfd565b905082815260208101848484011115610c8757610c86610b98565b5b610c92848285610c49565b509392505050565b600082601f830112610caf57610cae610b93565b5b8135610cbf848260208601610c58565b91505092915050565b60008060408385031215610cdf57610cde610af4565b5b600083013567ffffffffffffffff811115610cfd57610cfc610af9565b5b610d0985828601610c9a565b925050602083013567ffffffffffffffff811115610d2a57610d29610af9565b5b610d3685828601610c9a565b9150509250929050565b600082825260208201905092915050565b7f596f7520617265206e6f7420616e206f776e6572000000000000000000000000600082015250565b6000610d87601483610d40565b9150610d9282610d51565b602082019050919050565b60006020820190508181036000830152610db681610d7a565b9050919050565b7f4e487b7100000000000000000000000000000000000000000000000000000000600052602260045260246000fd5b60006002820490506001821680610e0457607f821691505b60208210811415610e1857610e17610dbd565b5b50919050565b7f63616e27742062757920636f6666656520666f72206672656521000000000000600082015250565b6000610e54601a83610d40565b9150610e5f82610e1e565b602082019050919050565b60006020820190508181036000830152610e8381610e47565b9050919050565b610e9381610916565b82525050565b6000610ea48261092f565b610eae8185610d40565b9350610ebe81856020860161094b565b610ec78161097e565b840191505092915050565b6000606082019050610ee76000830186610e8a565b8181036020830152610ef98185610e99565b90508181036040830152610f0d8184610e99565b905094935050505056fea264697066735822122014c1fdf40c613e8fc7875d7ad35258d526a7afbd0a3f9be9ab02f4b89bf57b0364736f6c63430008090033",
  "linkReferences": {},
  "deployedLinkReferences": {}
}